:020000040000FA
:100000000C9463000C948B000C948B000C948B006C
:100010000C948B000C948B000C948B000C948B0034
:100020000C948B000C948B000C948B000C948B0024
:100030000C948B000C948B000C948B000C948B0014
:100040000C9491020C948B000C948B000C948B00FC
:100050000C948B000C948B000C948B000C948B00F4
:100060000C948B000C948B000000000024002700EF
:100070002A0000000000250028002B0000000000DE
:1000800023002600290004040404040404040202DA
:100090000202020203030303030301020408102007
:1000A0004080010204081020010204081020000012
:1000B0000008000201000003040700000000000027
:1000C0000000FB046E0511241FBECFEFD8E0DEBF99
:1000D000CDBF21E0A8E2B1E001C01D92A03BB20774
:1000E000E1F711E0A0E0B1E0E8E8FFE002C0059030
:1000F0000D92A832B107D9F710E0C2E6D0E004C0F3
:100100002197FE010E94B605C136D107C9F70E94AA
:10011000DB020C94B7070C94000096E0899FD00195
:100120001124A35CBE4F90967C936E935F9791E0F1
:1001300091969C939197E091AA01F091AB019091D7
:10014000A901992339F0309751F0811108C08091AD
:1001500059010994309719F05C968C91FACF089563
:10016000CF92DF92EF92FF920F931F9396E0899FB9
:10017000F0011124E35CFE4F11A2278D30A1213044
:10018000310551F178F02230310509F451C02330A6
:10019000310509F452C01F910F91FF90EF90DF904D
:1001A000CF9008956623B9F361E070E00E948D005E
:1001B0002FB7F8948091390190913A01A0913B01B9
:1001C000B0913C012FBF8093950190939601A0932D
:1001D0009701B0939801DFCF9FB7F894C090390191
:1001E000D0903A01E0903B01F0903C019FBF00911C
:1001F0009501109196012091970130919801C01AB4
:10020000D10AE20AF30A0091A7011091A80130E097
:1002100020E00C151D052E053F0550F462E070E04E
:100220001F910F91FF90EF90DF90CF900C948D0075
:100230006111B1CF63E070E0F3CF70E060E0F0CF28
:10024000833081F028F4813099F08230A9F008954C
:100250008730A9F08830C9F08430B1F480918000F3
:100260008F7D03C0809180008F77809380000895F8
:1002700084B58F7784BD089584B58F7DFBCF809141
:10028000B0008F778093B00008958091B0008F7D8B
:10029000F9CFCF93DF93282F30E0F901E255FF4FDC
:1002A0008491F901E656FF4FD491F901EA57FF4FC7
:1002B000C491CC23A1F081110E942001EC2FF0E029
:1002C000EE0FFF1FE458FF4FA591B491EC91ED2381
:1002D00081E090E009F480E0DF91CF91089580E023
:1002E00090E0FACF1F93CF93DF93282F30E0F901EE
:1002F000E255FF4F8491F901E656FF4FD491F90181
:10030000EA57FF4FC491CC23A9F0162F81110E9408
:100310002001EC2FF0E0EE0FFF1FEE58FF4FA591EC
:10032000B4918FB7F894EC91111108C0D095DE23E9
:10033000DC938FBFDF91CF911F910895DE2BF8CF13
:10034000CF93DF9390E0FC01E656FF4F24918A574C
:100350009F4FFC0184918823C9F090E0880F991F7A
:10036000FC01E859FF4FA591B491FC01EE58FF4FF5
:10037000C591D49161110DC09FB7F8948C912095CF
:1003800082238C938881282328839FBFDF91CF917C
:100390000895623051F49FB7F8943C91822F809574
:1003A00083238C93E8812E2BEFCF8FB7F894EC91B9
:1003B0002E2B2C938FBFEACF3FB7F8948091350155
:1003C00090913601A0913701B091380126B5A89BD4
:1003D00005C02F3F19F00196A11DB11D3FBFBA2FD7
:1003E000A92F982F8827BC01CD01620F711D811D97
:1003F000911D42E0660F771F881F991F4A95D1F71C
:1004000008958F929F92AF92BF92CF92DF92EF9218
:10041000FF924B015C010E94DC016B017C010E9498
:10042000DC016C197D098E099F09683E73408105C6
:100430009105A8F321E0821A9108A108B10888EE7D
:10044000C80E83E0D81EE11CF11C81149104A104A4
:10045000B10429F7FF90EF90DF90CF90BF90AF905D
:100460009F908F900895862F642F0C94A001862F63
:10047000642F0C947201862F0C9449010F931F93E3
:10048000CF93DF93EC0188819981009759F02A81FD
:100490003B812617370730F081E0DF91CF911F9124
:1004A0000F9108958B016F5F7F4F0E94E1060097C7
:1004B00059F0998388831B830A832C813D81232BE8
:1004C00059F7FC011082E8CF80E0E7CFEF92FF926E
:1004D0000F931F93CF93DF93EC017B018A01BA0145
:1004E0000E943E0228813981811114C021153105F5
:1004F00019F0C9010E945806198218821D821C82B7
:100500001B821A82CE01DF91CF911F910F91FF9034
:10051000EF9008951D830C83B701C9010E94B007B5
:10052000F1CF1F920F920FB60F9211242F933F938A
:100530008F939F93AF93BF938091390190913A012C
:10054000A0913B01B0913C013091340123E0230F95
:100550002D3758F50196A11DB11D209334018093CC
:10056000390190933A01A0933B01B0933C018091F3
:10057000350190913601A0913701B0913801019673
:10058000A11DB11D8093350190933601A0933701D1
:10059000B0933801BF91AF919F918F913F912F916F
:1005A0000F900FBE0F901F90189526E8230F02960C
:1005B000A11DB11DD2CFCF93DF9300D0CDB7DEB751
:1005C000789484B5826084BD84B5816084BD85B52E
:1005D000826085BD85B5816085BD80916E0081603A
:1005E00080936E00109281008091810082608093E0
:1005F00081008091810081608093810080918000E2
:100600008160809380008091B10084608093B1000C
:100610008091B00081608093B00080917A00846006
:1006200080937A0080917A00826080937A00809132
:100630007A00816080937A0080917A00806880934C
:100640007A001092C10061E08CE00E94A00161E09C
:100650008BE00E94A001412C512C3201439440E0D8
:10066000A42E40E0B42E51E05093A9018FB7F89426
:100670004091390150913A0160913B0170913C01E8
:100680008FBF8091990190919A01A0919B01B091A7
:100690009C01481B590B6A0B7B0B8091A501909123
:1006A000A601B0E0A0E084179507A607B70708F0F9
:1006B0001BC110E08091A301181760F4E0919F0125
:1006C000F091A001E10FF11D62E080810E94A00184
:1006D0001F5FF0CF312C8091A401381608F061C063
:1006E000E32CF12CE091A101F091A201EE0DFF1D90
:1006F00061E080810E94A001E091A101F091A2013E
:10070000EE0DFF1D60E080810E947201D301C201E5
:10071000032C04C0880F991FAA1FBB1F0A94D2F78D
:100720004C016C01C094D094212C8091A301281617
:1007300008F5022D10E0E0919F01F091A001E00F7B
:10074000F11F80810E9449010C5F1F4F000F111F94
:10075000F801E35CFE4F892B41F480819181882967
:100760009929918380832394E0CF808191818C218A
:100770009D21F7CFE091A101F091A201EE0DFF1DA7
:1007800061E080810E9472018091A1019091A2019B
:10079000E80EF91E60E0F70180810E94A001339409
:1007A0009ACF0DE311E07801F701878D90A1892B95
:1007B00031F4148E8FEF9FEF968F858F11A296E004
:1007C000E90EF11CE9E7EE16E1E0FE0669F7912C6F
:1007D0008091A301981608F053C0812CC92CD12C0C
:1007E000CC0CDD1CC6018B5B9E4F6C012091A401DB
:1007F000821608F043C0F60160817181082C02C0A6
:10080000769567950A94E2F7929E90011124280D3F
:10081000311DEDE3F1E080E0458D568D241735075D
:1008200009F4BEC08F5F36968A30B1F760FF24C0EE
:10083000EDE3F1E090E080E0448D411118C0E091DB
:100840009D01F0919E01E20FF31F408156E0589FF9
:10085000F001599FF00D1124E35CFE4F448F368F59
:10086000258F10A2178E61E00E94B00005C001968E
:1008700036968A30910501F78394B8CF9394A8CF28
:1008800080E0F80191A19111892F0A5F1F4FE016B6
:10089000F106B9F79FB7F8944091390150913A01A8
:1008A00060913B0170913C019FBF4093990150932F
:1008B0009A0160939B0170939C018823A9F0809119
:1008C0005E01882389F080915C0190915D01019720
:1008D00059F48091590181110AC0A114B10409F49D
:1008E000C2CE0E940000BFCE1092A901F6CF833283
:1008F00081F5209132013091330180912C0190914A
:100900002D0128173907C1F480912E0190912F01F4
:100910006091280170912901009709F443C0611585
:10092000710539F4232B09F44BC0FC01808190E060
:1009300044C00E94A70741C061E08BE00E947201A1
:1009400060ED77E080E090E00E94010260E08BE0E3
:1009500047C08A3209F446C089831A820091320165
:10096000109133010F5F1F4FB8018EE291E00E949A
:100970003E02882309F4B1CF20912E0130912F013E
:100980008091320190913301BE016F5F7F4F820FE2
:10099000931F0E94B00710933301009332019DCF43
:1009A000617062CF6115710559F0232B49F0FB018D
:1009B000808190E0919581959109892B09F0BCCFB8
:1009C00061E08CE00E94720160E08BE00E947201A5
:1009D00068EB7BE080E090E00E94010260E08CE048
:1009E0000E94720150E040E067E271E08EE291E027
:1009F0000E94660272CF10923F0110924301109242
:100A00004201109244018DE191E090933E01809368
:100A10003D01E9E5F1E010821482138215823696D9
:100A200081E0E539F807B9F783E091E09093A00100
:100A300080939F0180E091E09093A2018093A101B7
:100A400084E08093A30183E08093A40187E091E098
:100A500090939E0180939D018AE090E09093A6017F
:100A60008093A50184EF91E09093A8018093A70162
:100A70001092AB011092AA011092990110929A0162
:100A800010929B0110929C011092A90110922901D1
:100A90001092280110922B0110922A0110922D0120
:100AA00010922C0144E050E063E271E088E291E0B2
:100AB0000E94660210922F0110922E0110923101B5
:100AC00010923001109233011092320150E040E058
:100AD00067E271E08EE291E00C94660280912E0153
:100AE00090912F01009711F00E94580680912801E3
:100AF00090912901009711F00C94580608952F92B7
:100B00003F924F925F926F927F928F929F92AF929D
:100B1000BF92CF92DF92EF92FF920F931F93CF93EA
:100B2000DF93CDB7DEB7CA1BDB0B0FB6F894DEBF81
:100B30000FBECDBF09942A88398848885F846E84A7
:100B40007D848C849B84AA84B984C884DF80EE80F1
:100B5000FD800C811B81AA81B981CE0FD11D0FB6FA
:100B6000F894DEBF0FBECDBFED010895EE0FFF1F5D
:100B70000590F491E02D09940F931F93CF93DF9389
:100B80008230910510F482E090E0E091AE01F091A6
:100B9000AF0130E020E0B0E0A0E0309799F42115FB
:100BA000310509F44AC0281B390B24303105D8F52A
:100BB0008A819B816115710589F1FB019383828391
:100BC000FE0111C0408151810281138148175907EC
:100BD000E0F04817590799F4109761F012960C93BA
:100BE000129713961C933296CF01DF91CF911F91EC
:100BF0000F9108950093AE011093AF01F4CF21152A
:100C0000310551F04217530738F0A901DB019A0171
:100C1000BD01DF01F801C1CFEF01F9CF9093AF0122
:100C20008093AE01CDCFFE01E20FF31F819391932C
:100C30002250310939832883D7CF2091AC013091DC
:100C4000AD01232B41F42091150130911601309311
:100C5000AD012093AC0120911301309114012115B5
:100C6000310541F42DB73EB740911701509118015D
:100C7000241B350BE091AC01F091AD01E217F307B5
:100C8000A0F42E1B3F0B2817390778F0AC014E5FFC
:100C90005F4F2417350748F04E0F5F1F5093AD018B
:100CA0004093AC01819391939FCFF0E0E0E09CCF23
:100CB000CF93DF930097E9F0FC0132971382128201
:100CC000A091AE01B091AF01ED0130E020E01097AE
:100CD000A1F420813181820F931F2091AC013091CA
:100CE000AD012817390709F061C0F093AD01E09319
:100CF000AC01DF91CF910895EA01CE17DF07E8F547
:100D00004A815B819E0141155105B1F7E901FB83E1
:100D1000EA8349915991C40FD51FEC17FD0761F47F
:100D2000808191810296840F951FE90199838883C0
:100D3000828193819B838A83F0E0E0E012968D911B
:100D40009C9113970097B9F52D913C911197CD0186
:100D50000296820F931F2091AC013091AD012817AC
:100D6000390739F6309751F51092AF011092AE0164
:100D7000B093AD01A093AC01BCCFD383C2834081BB
:100D80005181840F951FC817D90761F44E5F5F4FDB
:100D900088819981480F591F518340838A819B81A3
:100DA000938382832115310509F0B0CFF093AF0111
:100DB000E093AE019ECFFD01DC01C0CF1382128211
:100DC000D7CFB0E0A0E0E7EEF6E00C9481058C010F
:100DD000009751F4CB010E94BC058C01C801CDB72E
:100DE000DEB7E0E10C949D05FC01E60FF71F9C01C6
:100DF00022503109E217F30708F49DC0D901CD91C3
:100E0000DC911197C617D70798F0C530D10530F39C
:100E1000CE0104978617970708F3C61BD70B2297B6
:100E2000C193D1936D937C93CF010E945806D6CF86
:100E30005B01AC1ABD0A4C018C0E9D1EA091AE0147
:100E4000B091AF01512C412CF12CE12C109731F5D0
:100E50008091AC019091AD018815990509F05CC0B5
:100E60004616570608F058C080911301909114015E
:100E7000009741F48DB79EB740911701509118012A
:100E8000841B950BE817F90708F055C0F093AD01E6
:100E9000E093AC01F90171836083A0CF8D919C91A7
:100EA000119712966C90129713967C901397A81531
:100EB000B90559F56C0142E0C40ED11CCA14DB041B
:100EC00020F1AC014A195B09DA011296159780F0FE
:100ED0006282738251834083D9016D937C93E114C4
:100EE000F10471F0D7011396FC93EE93129776CF2D
:100EF00022968C0F9D1FF90191838083F301EFCF20
:100F0000F093AF01E093AE0169CF4816590608F49B
:100F10002C017D01D3019ACFCB010E94BC057C013D
:100F2000009749F0AE01B8010E949E07C8010E94D7
:100F30005806870153CF10E000E050CFFB01DC01E1
:100F400002C001900D9241505040D8F70895FB0126
:100F5000DC018D91019080190110D9F3990B08954E
:100F6000FB01DC0101900D920020E1F7089510E0F3
:100F7000C2E6D0E004C0FE010E94B6052196C33649
:100F8000D107C9F7F894FFCF040506000102033129
:100F900032333435363738392A30230000B00180F7
:100FA0000000000000330237023B023132333400CC
:107E0000112484B714BE81FFF0D085E080938100F7
:107E100082E08093C00088E18093C10086E0809377
:107E2000C20080E18093C4008EE0C9D0259A86E02C
:107E300020E33CEF91E0309385002093840096BBD3
:107E4000B09BFECF1D9AA8958150A9F7CC24DD24C4
:107E500088248394B5E0AB2EA1E19A2EF3E0BF2EE7
:107E6000A2D0813461F49FD0082FAFD0023811F036
:107E7000013811F484E001C083E08DD089C08234E0
:107E800011F484E103C0853419F485E0A6D080C0E4
:107E9000853579F488D0E82EFF2485D0082F10E0AE
:107EA000102F00270E291F29000F111F8ED06801E7
:107EB0006FC0863521F484E090D080E0DECF843638
:107EC00009F040C070D06FD0082F6DD080E0C81688
:107ED00080E7D80618F4F601B7BEE895C0E0D1E017
:107EE00062D089930C17E1F7F0E0CF16F0E7DF06D8
:107EF00018F0F601B7BEE89568D007B600FCFDCFD4
:107F0000A601A0E0B1E02C9130E011968C91119780
:107F100090E0982F8827822B932B1296FA010C0160
:107F200087BEE89511244E5F5F4FF1E0A038BF0790
:107F300051F7F601A7BEE89507B600FCFDCF97BE46
:107F4000E89526C08437B1F42ED02DD0F82E2BD052
:107F50003CD0F601EF2C8F010F5F1F4F84911BD097
:107F6000EA94F801C1F70894C11CD11CFA94CF0C13
:107F7000D11C0EC0853739F428D08EE10CD085E9AC
:107F80000AD08FE07ACF813511F488E018D01DD067
:107F900080E101D065CF982F8091C00085FFFCCF94
:107FA0009093C60008958091C00087FFFCCF809118
:107FB000C00084FD01C0A8958091C6000895E0E648
:107FC000F0E098E1908380830895EDDF803219F02E
:107FD00088E0F5DFFFCF84E1DECF1F93182FE3DFCA
:107FE0001150E9F7F2DF1F91089580E0E8DFEE27F6
:047FF000FF270994CA
:027FFE00040479
:00000001FF
