:100000000C945D000C9485000C9485000C94850084
:100010000C9485000C9485000C9485000C9485004C
:100020000C9485000C9485000C9485000C9485003C
:100030000C9485000C9485000C9485000C9485002C
:100040000C9456020C9485000C94C6020C94A002E9
:100050000C9485000C9485000C9485000C9485000C
:100060000C9485000C9485000000000024002700FB
:100070002A0000000000250028002B0004040404CE
:100080000404040402020202020203030303030342
:10009000010204081020408001020408102001021F
:1000A00004081020000000080002010000030407FB
:1000B00000000000000000009B0411241FBECFEFD1
:1000C000D8E0DEBFCDBF11E0A0E0B1E0E8E7FDE0A1
:1000D00002C005900D92A433B107D9F721E0A4E343
:1000E000B1E001C01D92AA3DB207E1F710E0CDE5F5
:1000F000D0E004C02197FE010E94B406CC35D107A0
:10010000C9F70E94F8020C94BA060C94000090E023
:10011000FC01EC55FF4F2491FC01E057FF4F349157
:10012000FC01E458FF4FE491EE23C9F0222339F09B
:10013000233001F1A8F4213019F1223029F1F0E047
:10014000EE0FFF1FEE58FF4FA591B4918FB7F894B3
:10015000EC91611126C030953E233C938FBF0895EA
:100160002730A9F02830C9F0243049F78091800069
:100170008F7D03C0809180008F7780938000DFCFD8
:1001800084B58F7784BDDBCF84B58F7DFBCF809125
:10019000B0008F778093B000D2CF8091B0008F7D78
:1001A000F9CF3E2BDACF3FB7F89480913901909187
:1001B0003A01A0913B01B0913C0126B5A89B05C036
:1001C0002F3F19F00196A11DB11D3FBFBA2FA92FD6
:1001D000982F8827BC01CD01620F711D811D911DD3
:1001E00042E0660F771F881F991F4A95D1F708953F
:1001F000AF92BF92CF92DF92EF92FF920F931F9335
:10020000CF93DF936C017B018B01040F151FEB0172
:100210005E01AE18BF08C017D10759F06991D60129
:10022000ED91FC910190F081E02DC6010995892B9B
:1002300079F7C501DF91CF911F910F91FF90EF905A
:10024000DF90CF90BF90AF900895FC01538D448D07
:10025000252F30E0842F90E0821B930B541710F071
:10026000CF96089501970895FC01918D828D98177E
:1002700061F0A28DAE0FBF2FB11D5D968C91928D56
:100280009F5F9F73928F90E008958FEF9FEF089587
:10029000FC01918D828D981731F0828DE80FF11D50
:1002A000858D90E008958FEF9FEF0895FC01918D6B
:1002B000228D892F90E0805C9F4F821B91098F7364
:1002C000992708958DE391E00E94560121E0892B42
:1002D00009F420E0822F089580E090E0892B29F036
:1002E0000E94620181110C9400000895FC01A48D0C
:1002F000A80FB92FB11DA35ABF4F2C91848D90E048
:1003000001968F739927848FA689B7892C93A0892A
:10031000B1898C91837080648C93938D848D9813B4
:1003200006C00288F389E02D80818F7D8083089547
:10033000EF92FF920F931F93CF93DF93EC0181E035
:10034000888F9B8D8C8D98131AC0E889F9898081DC
:1003500085FF15C09FB7F894EE89FF896083E8890F
:10036000F98980818370806480839FBF81E090E001
:10037000DF91CF911F910F91FF90EF900895F62E8E
:100380000B8D10E00F5F1F4F0F731127E02E8C8D28
:100390008E110CC00FB607FCFACFE889F98980816D
:1003A00085FFF5CFCE010E947601F1CFEB8DEC0FEA
:1003B000FD2FF11DE35AFF4FF0829FB7F8940B8F8A
:1003C000EA89FB8980818062CFCFCF93DF93EC01F4
:1003D000888D8823B9F0AA89BB89E889F9898C912D
:1003E00085FD03C0808186FD0DC00FB607FCF7CFE9
:1003F0008C9185FFF2CF808185FFEDCFCE010E94E9
:100400007601E9CFDF91CF910895FC0101900020A2
:10041000E9F73197AF01481B590BBC018DE391E01F
:100420000C94F8008F929F92AF92BF920F931F93FC
:10043000CF93DF93CDB7DEB7A1970FB6F894DEBFA9
:100440000FBECDBF19A2423008F44AE08E010F5D05
:100450001F4F842E912CB12CA12CA50194010E9438
:100460009206E62FB901CA01EA30F4F4E05DD80142
:10047000EE938D01232B242B252B79F790E080E040
:10048000109719F0CD010E940502A1960FB6F894BD
:10049000DEBF0FBECDBFDF91CF911F910F91BF90F7
:1004A000AF909F908F900895E95CE1CF1F920F92DB
:1004B0000FB60F9211242F933F938F939F93AF9377
:1004C000BF938091350190913601A0913701B09191
:1004D00038013091340123E0230F2D3758F5019670
:1004E000A11DB11D209334018093350190933601F5
:1004F000A0933701B09338018091390190913A016E
:10050000A0913B01B0913C010196A11DB11D8093CA
:10051000390190933A01A0933B01B0933C01BF9104
:10052000AF919F918F913F912F910F900FBE0F90A0
:100530001F90189526E8230F0296A11DB11DD2CF5A
:100540001F920F920FB60F9211242F933F934F9348
:100550005F936F937F938F939F93AF93BF93EF932B
:10056000FF938DE391E00E947601FF91EF91BF919F
:10057000AF919F918F917F916F915F914F913F913B
:100580002F910F900FBE0F901F9018951F920F92F2
:100590000FB60F9211242F938F939F93EF93FF9396
:1005A000E0914D01F0914E018081E0915301F09175
:1005B000540182FD1BC09081809156018F5F8F7323
:1005C00020915701821741F0E0915601F0E0E35C81
:1005D000FE4F958F80935601FF91EF919F918F91E0
:1005E0002F910F900FBE0F901F9018958081F4CF20
:1005F000789484B5826084BD84B5816084BD85B5FE
:10060000826085BD85B5816085BD80916E00816009
:1006100080936E00109281008091810082608093AF
:1006200081008091810081608093810080918000B1
:100630008160809380008091B10084608093B100DC
:100640008091B00081608093B00080917A008460D6
:1006500080937A0080917A00826080937A00809102
:100660007A00816080937A0080917A00806880931C
:100670007A001092C100EDE9F0E02491E9E8F0E0A1
:100680008491882399F090E0880F991FFC01E85924
:10069000FF4FA591B491FC01EE58FF4F85919491C5
:1006A0008FB7F894EC91E22BEC938FBFE0914D0162
:1006B000F0914E0182E08083E0914901F0914A017E
:1006C0001082E0914B01F0914C018FEC80831092ED
:1006D0005501E0915101F091520186E08083E09153
:1006E0004F01F0915001808180618083E0914F0142
:1006F000F0915001808188608083E0914F01F091FA
:100700005001808180688083E0914F01F091500119
:1007100080818F7D808310E4C0E0D0E010937C0066
:1007200080917A00806480937A0080917A0086FDBF
:10073000FCCF6091780070917900072E000C880B37
:10074000990B0E946B052AE038E240EA5BE30E94C5
:10075000200620E030E048EC52E40E9420066B01C5
:100760007C0182E191E00E940502A7019601C70188
:10077000B6010E948D06882309F44BC081E291E006
:100780000E9405028DE291E00E94050280E391E063
:100790000E94050220E030E040EF51E4C701B601BD
:1007A0000E941B0661E018160CF060E08DE00E94CC
:1007B00087000E94D3006B017C0184EF882E99246E
:1007C0009394A12CB12C0E94D3006C197D098E0941
:1007D0009F09683E734081059105A8F321E0821AC4
:1007E0009108A108B10888EEC80E83E0D81EE11C6C
:1007F000F11C81149104A104B10429F7209709F494
:100800008DCF0E946201882309F488CF0E940000E6
:1008100085CF46015701E894B7F82FEF3FEF4FE738
:100820005FE7C501B4010E948D0681110DC02FEF55
:100830003FEF4FE75FE7C501B4010E943505181689
:100840001CF485E291E09CCF2FEF3FEF4FE75FE490
:10085000C701B6010E941B0618161CF489E291E03C
:100860008FCF2FEF3FEF4FE75FECC701B6010E943C
:10087000350587FDF3CF20E030E0A901C701B601BF
:100880000E94350587FF54C06DE28DE391E00E9420
:100890009801C701B60190582AE037ED43EA5BE3BF
:1008A0000E94C9042B013C010E943A054B015C01E6
:1008B0000E9469059B01AC01C301B2010E94C804FA
:1008C0002B013C014AE0C501B4010E9412026EE214
:1008D0008DE391E00E94980120E030E040E251E495
:1008E000C301B2010E9420062B013C010E943A057F
:1008F0004B01B12CA12C4AE0C501B4010E941202A7
:10090000C501B4010E9469059B01AC01C301B2019C
:100910000E94C80420E030E040E251E40E9420063A
:100920000E943A0590E080E04AE00E9412022ACF3D
:10093000C701B601B1CFEDE3F1E01382128288EE78
:1009400093E0A0E0B0E084839583A683B78384E03E
:1009500091E09183808385EC90E09587848784EC97
:1009600090E09787868780EC90E0918B808B81EC7C
:1009700090E0938B828B82EC90E0958B848B86EC5D
:1009800090E0978B868B118E128E138E148E0895A5
:100990005058BB27AA270E94E0040C94E1050E944E
:1009A000D30538F00E94DA0520F039F49F3F19F49E
:1009B00026F40C94D0050EF4E095E7FB0C94CA05E0
:1009C000E92F0E94F20558F3BA17620773078407EC
:1009D000950720F079F4A6F50C9414060EF4E09532
:1009E0000B2EBA2FA02D0B01B90190010C01CA01E9
:1009F000A0011124FF27591B99F0593F50F4503E94
:100A000068F11A16F040A22F232F342F4427585F85
:100A1000F3CF469537952795A795F0405395C9F79D
:100A20007EF41F16BA0B620B730B840BBAF0915055
:100A3000A1F0FF0FBB1F661F771F881FC2F70EC0F4
:100A4000BA0F621F731F841F48F4879577956795C7
:100A5000B795F7959E3F08F0B0CF9395880F08F0B3
:100A60009927EE0F9795879508950E94A60508F49B
:100A700081E008950E94FA0588F09F5798F0B92FF9
:100A80009927B751B0F0E1F0660F771F881F991FC3
:100A90001AF0BA95C9F714C0B13091F00E9414064B
:100AA000B1E008950C941406672F782F8827B85F5B
:100AB00039F0B93FCCF3869577956795B395D9F71B
:100AC0003EF490958095709561957F4F8F4F9F4F25
:100AD0000895E89409C097FB3EF490958095709531
:100AE00061957F4F8F4F9F4F9923A9F0F92F96E97A
:100AF000BB279395F695879577956795B795F111EF
:100B0000F8CFFAF4BB0F11F460FF1BC06F5F7F4F8B
:100B10008F4F9F4F16C0882311F096E911C077239D
:100B200021F09EE8872F762F05C0662371F096E8A6
:100B3000862F70E060E02AF09A95660F771F881F75
:100B4000DAF7880F9695879597F90895990F000819
:100B5000550FAA0BE0E8FEEF16161706E807F9078F
:100B6000C0F012161306E407F50798F0621B730B2A
:100B7000840B950B39F40A2661F0232B242B252BAB
:100B800021F408950A2609F4A140A6958FEF811D4E
:100B9000811D089597F99F6780E870E060E00895EF
:100BA0009FEF80EC089500240A9416161706180685
:100BB0000906089500240A94121613061406050661
:100BC0000895092E0394000C11F4882352F0BB0FF2
:100BD00040F4BF2B11F460FF04C06F5F7F4F8F4F55
:100BE0009F4F089557FD9058440F551F59F05F3F90
:100BF00071F04795880F97FB991F61F09F3F79F03F
:100C000087950895121613061406551FF2CF4695C0
:100C1000F1DF08C0161617061806991FF1CF869542
:100C20007105610508940895E894BB276627772726
:100C3000CB0197F908950E94A60508F48FEF089557
:100C40000E9433060C94E1050E94D30538F00E94FF
:100C5000DA0520F0952311F00C94CA050C94D00508
:100C600011240C9415060E94F20570F3959FC1F3B0
:100C7000950F50E0551F629FF001729FBB27F00D4A
:100C8000B11D639FAA27F00DB11DAA1F649F66279F
:100C9000B00DA11D661F829F2227B00DA11D621FEE
:100CA000739FB00DA11D621F839FA00D611D221FA8
:100CB000749F3327A00D611D231F849F600D211D8C
:100CC000822F762F6A2F11249F5750409AF0F1F00F
:100CD00088234AF0EE0FFF1FBB1F661F771F881F78
:100CE00091505040A9F79E3F510580F00C94CA05E1
:100CF0000C9415065F3FE4F3983ED4F38695779500
:100D00006795B795F795E7959F5FC1F7FE2B880F1D
:100D1000911D9695879597F908950E94A605880BD1
:100D2000990B0895A1E21A2EAA1BBB1BFD010DC051
:100D3000AA1FBB1FEE1FFF1FA217B307E407F5078B
:100D400020F0A21BB30BE40BF50B661F771F881F67
:100D5000991F1A9469F760957095809590959B01FD
:100D6000AC01BD01CF010895EE0FFF1F0590F49176
:080D7000E02D0994F894FFCF77
:100D7800000000009801F8002501E5015601340142
:100D8800480154656D7065726174757265203D2007
:100D9800006E616E00696E66006F76660020430023
:040DA8000D0A000030
:00000001FF
